:020000040800F2
:1000000058070020450100084D0100084F01000875
:1000100051010008530100085501000800000000CC
:100020000000000000000000000000005701000870
:1000300059010008000000005B0100087913000866
:100040005F0100085F0100085F0100085F01000810
:100050005F0100085F0100085F0100085F01000800
:100060005F0100085F0100085F0100085F010008F0
:100070005F0100085F0100085F0100085F010008E0
:100080005F0100085F0100085F0100085F010008D0
:100090005F0100085F0100085F0100085F010008C0
:1000A0005F0100085F0100085F0100085F010008B0
:1000B0005F010008011400085F0100085F010008EB
:1000C0005F0100085F0100085F0100085F01000890
:1000D0005F010008111800085F0100085F010008B7
:1000E0005F0100085F0100085F0100085F01000870
:1000F0005F0100085F0100085F0100085F01000860
:100100005F0100085F0100085F0100085F0100084F
:100110005F0100085F0100085F0100085F0100083F
:100120005F0100085F0100085F0100085F0100082F
:10013000DFF80CD000F0F2FA00480047DD2C000890
:10014000580700200648804706480047FEE7FEE7BC
:10015000FEE7FEE7FEE7FEE7FEE7FEE7FEE7FEE777
:10016000911300083101000840EA01039B0703D006
:1001700009E008C9121F08C0042AFAD203E011F8E6
:10018000013B00F8013B521EF9D270472DE9FE4FAA
:1001900081EA030404F0004421F0004100944FF090
:1001A000000B23F0004350EA01045ED052EA03043E
:1001B0005BD0C3F30A54C1F30A552C44A4F2F334C0
:1001C0000194A0FB0254C1F3130141F48011C3F365
:1001D000130343F4801301FB024400FB034E840A23
:1001E000970A44EA815447EA8357A4FB07680295BB
:1001F0008D0A05FB07854FEA932C04FB0C54270559
:10020000029D4FEA065847EA1637B5EB08056EEB34
:10021000070C870E920E47EA811742EA8312A7FB6A
:100220000201B6EB0B0164EB00042B0D43EA0C3327
:100230005E1844EB1C50DA465146E7FB0201C5F359
:1002400013044FEA0B3343EA14534FEA0432019C80
:1002500043EA0603A4F10C040294009CCDE900B427
:1002600000F0C7F803B0BDE8F08F00200146F9E7C1
:1002700096230022114600F07FB800F0004230F0D3
:1002800000400AD0C10D01F56071C0F3160042EACA
:100290000151C208400711437047002001467047D2
:1002A00001F0004330B421F0004150EA010206D0D1
:1002B0000A0DA2F56072C1F31301002A02DC30BC02
:1002C00000207047440F44EAC104C100E01830BC6C
:1002D00000EBC25000F047B830B50B460146002095
:1002E0002022012409E021FA02F59D4205D303FAF8
:1002F00002F5491B04FA02F52844151EA2F1010279
:10030000F1DC30BD2DE9F05F0546002092469B46AA
:1003100088460646814640241BE02846414647461B
:10032000224600F01CFA53465A46C01A914110D397
:1003300011461846224600F003FA2D1A67EB010811
:100340004F4622460120002100F0FAF917EB000980
:100350004E41201EA4F10104DFDC484631462A4606
:100360004346BDE8F09F0029A8BF7047401C4900E4
:1003700008BF20F00100704710B4B0FA80FC00FA0A
:100380000CF050EA010404BF10BC704749B1CCF135
:10039000200421FA04F411FA0CF118BF01212143C1
:1003A0000843A3EB0C01CB1D4FEA00614FEA10207C
:1003B00042BF002010BC704700EBC350104400291E
:1003C000A4BF10BC7047401C490008BF20F00100CA
:1003D00010BC704710B5141E73F1000408DA401CFD
:1003E00041F1000192185B411A4301D120F0010054
:1003F00010BD2DE9F04D92469B4611B1B1FA81F244
:1004000002E0B0FA80F22032904600F099F90446FA
:100410000F4640EA0A0041EA0B0153465A46084398
:1004200013D0114653EA010019D0C8F140025046DA
:1004300000F095F905460E4650465946424600F0F2
:100440007FF9084305D0012004E020463946BDE885
:10045000F08D0020054346EAE0762C4337430A98A6
:100460006305E40AA0EB08000022FD0A44EA4754B1
:100470000A3002D500200146E9E70105101969415B
:10048000DDE9084500196941BDE8F04DA2E72DE915
:10049000FE4F804681EA0300C00F0C46009021F019
:1004A000004123F00045B8EB0200A94105D24046C7
:1004B000214690461C460B46024623F0004010435E
:1004C00047D0270DC7F30A00C3F30A510290401A20
:1004D000019040286BDAC3F3130040F4801B0098AE
:1004E000924620B10023D2EB030A63EB0B0B019879
:1004F0005946C0F14002504600F022F906460D462A
:1005000050465946019A00F03AF910EB0800614153
:10051000002487EA115284EAE7731A4340D0009A14
:1005200062B3019A012A4FEA075215DC001B61EB06
:1005300002014FF0004202EA0752CDE90042001CDE
:1005400041F5801132462B46FFF753FF03B0BDE85B
:10055000F08F40462146F9E7001B61EB0201001CC9
:1005600041F5801300185B412018A2F5001747EBF6
:10057000030140EAD570B6196D4111E06D084FEAEC
:10058000360645EAC0754FEA0752001B61EB0201CF
:10059000001C41F5801149084FEA30000019514113
:1005A00032462B4603B0BDE8F04FFFF713BF00986B
:1005B000012240000023D0EB020263EBE0730098BD
:1005C00021464FEAE074B8EB000061EB0401E9E773
:1005D00083F000435BE781F0004158E72DE9F04DDF
:1005E00081EA030404F0004B21F0004514464FF06B
:1005F000000A23F0004150EA050220D054EA01022B
:100600001DD0C5F30A570246C5F31303C1F3130007
:10061000C1F30A5640F4801543F48013A7EB060893
:10062000101BD64608F2FD3873EB050002D308F123
:10063000010801E092185B41B8F1000F03DA0020D5
:100640000146BDE8F08D00204FF480110646844637
:100650000EE0171B73EB050705D3121B63EB0503B5
:1006600006434CEA010C49084FEA300092185B41FE
:1006700050EA0107EDD152EA030012D082EA0400E9
:1006800083EA0501084305D0101BAB4106D20122C5
:10069000002306E000224FF0004302E06FF0010269
:1006A00053101AEB06004CEB085110EB0A0041EB1B
:1006B0000B01BDE8F04DFFF78DBEC1F30A52C1F347
:1006C000130140F2FF3341F480119A4202DA002014
:1006D0000146704740F233439A42A2F2334202DCB1
:1006E000524200F03CB800F02BB8000030B5041EB8
:1006F00071F1000404DB4FF00044404264EB01015F
:10070000141E73F1000405DB1C464FF000435242F7
:1007100063EB0403994208BF904230BD064C074D7D
:1007200006E0E06840F0010394E8070098471034C1
:10073000AC42F6D3FFF700FDB4310008D431000815
:10074000202A04DB203A00FA02F100207047914091
:10075000C2F1200320FA03F3194390407047202A86
:1007600004DB203A21FA02F00021704721FA02F35B
:10077000D040C2F120029140084319467047202A18
:1007800006DBCB17203A41FA02F043EAE07306E0B9
:1007900041FA02F3D040C2F12002914008431946C9
:1007A000704770B58C1810F8015B15F0070301D184
:1007B00010F8013B2A1106D110F8012B03E010F8C4
:1007C000016B01F8016B5B1EF9D12B0705D40023E7
:1007D000521E0DD401F8013BFAE710F8013BCB1A89
:1007E000921C03E013F8015B01F8015B521EF9D57E
:1007F000A142D8D3002070BD21B1826842F001022D
:10080000826003E0826822F0010282607047014644
:1008100000208A6802F004020AB1012000E00020F2
:1008200070470146C86C80B27047024600201368CA
:100830000B400BB1012000E00020704730B50246AC
:100840000020002350680F4C20400D790C6844EACA
:1008500005242043506090680B4C2040D1E902549D
:100860002C434D7944EA450420439060D06A20F43B
:1008700070000C7C641EE4B2234340EA0350D06253
:1008800030BD0000FFFEF0FFFDF7F1FFF0B50446BC
:100890000D4600200021092D11DDE068A5F10A06B2
:1008A00006EB4607072606FA07F18843A5F10A0674
:1008B00006EB460603FA06F10843E0600CE0206907
:1008C00005EB4507072606FA07F1884305EB4506C1
:1008D00003FA06F108432061072A0FDA606B561EFF
:1008E00006EB86071F2606FA07F18843561E06EB1D
:1008F000860605FA06F10843606322E00D2A0FDA46
:10090000206BD61F06EB86071F2606FA07F18843E1
:10091000D61F06EB860605FA06F10843206310E0B1
:10092000E06AA2F10D0606EB86071F2606FA07F11C
:100930008843A2F10D0606EB860605FA06F1084388
:10094000E062F0BD816841F008018160704721B12B
:10095000826842F4A002826003E0826822F4A0026E
:1009600082607047816841F0040181607047000037
:1009700000B587B001214FF4017000F0FBFA4FF48D
:10098000004000F0CBFA0220ADF8180003208DF8EB
:100990001A0000208DF81B0006A9184800F095F9F0
:1009A000002001908DF808008DF809004FF46020B8
:1009B00003900020049001208DF8140001A9104834
:1009C000FFF73CFF01210E48FFF716FF0C48FFF729
:1009D000B9FF00BF0A48FFF71AFF0028FAD10848FC
:1009E000FFF7C0FF00BF0648FFF711FF0028FAD14C
:1009F00001210348FFF7ABFF07B000BD000801402D
:100A00000024014070B5054600240EE055F824008E
:100A10000B49086003200B49086002F01DFA55F8E5
:100A2000241009A001F084F9641C052CEEDB0020E1
:100A30000C490860024908600249086070BD000066
:100A40005C010020580100206F6E652066696E69A8
:100A50007368656420617420256420736563200ACF
:100A6000000000005401002010B5044600200C498D
:100A700008600C48046003200B49086000F014FD76
:100A800002F0EAF9002009490860064908600649B1
:100A9000086003480068012800D110BD0020FCE771
:100AA000640100205C010020580100205401002056
:100AB0001148806940F040000F4988610F48006884
:100AC0000F4908400D490860084600680D49084371
:100AD0000A4908600C480D49C969016000200A49AB
:100AE000486088600A480949C969016000200849CE
:100AF0008860486070470000001002400018014004
:100B0000FF0000FF00444400980200200401002080
:100B1000A4020020014611B94FF0FF3070470022B7
:100B200002E000208854521C1E2AFADB00200862D2
:100B3000486200BFF2E7000070B50546002413E0EC
:100B400028780B4911F8341088420CD1687808498C
:100B500001EBC4014978884205D1054800EBC40087
:100B60004168A81C8847641C082CE9D3002070BD8C
:100B7000983000081048A0F15401104A91600C31DF
:100B8000A0F1540291600C39486118310B4A51614F
:100B90000C31A0F1540211622439C8623031074A85
:100BA0001162303988633C31D1620C31A0F15402BA
:100BB0005164483908657047080200207801002018
:100BC00070B506460D462C4625B90DA001F0B0F8CB
:100BD000002070BD0BE03146206802F040FA00288A
:100BE00001DB2046F5E710A001F0A2F80C34A06864
:100BF0000028F0D110A001F09BF80020E9E70000E8
:100C0000636D642068617665206F70206F70746911
:100C10006F6E732C2073797374656D2072657475B3
:100C2000726E2E200A000000736561746368696E3D
:100C3000672E2E2E200A00006E6F206F7074696F71
:100C40006E200A0070B50546094C08E02946206868
:100C500002F005FA002801DB204670BD0C34A068C4
:100C60000028F3D103A001F063F80020F5E70000AD
:100C7000780100204572726F723A204E6F206D61CC
:100C800074636820636D64200A000000FEB50546A9
:100C90000C466946284601F0AAFF6846FFF7D2FFD6
:100CA000064686B1307920706946284601F09FFFDC
:100CB0006846B168FFF784FF00796070296A4819B7
:100CC000A11C02F0DEF92046FEBD2DE9F0410246EE
:100CD00000250026002000230024002791F803C0EF
:100CE0000CF00F0591F803C00CF0100CBCF1000FD4
:100CF00003D091F802C04CEA050591F800C0BCF1A0
:100D0000000F31D0146800202BE04FF0010C0CFADA
:100D100000F3B1F800C00CEA03069E4220D1830024
:100D20004FF00F0C0CFA03F7BC4305FA03FC4CEA36
:100D3000040491F803C0BCF1280F06D14FF0010C58
:100D40000CFA00FCC2F814C00AE091F803C0BCF130
:100D5000480F05D14FF0010C0CFA00FCC2F810C08E
:100D6000401C0828D1D31460B1F800C0BCF1FF0FBB
:100D700034DD546800202EE000F1080C4FF001082B
:100D800008FA0CF3B1F800C00CEA03069E4221D128
:100D900083004FF00F0C0CFA03F7BC4305FA03FC79
:100DA0004CEA040491F803C0BCF1280F05D100F10E
:100DB000080C08FA0CF8C2F8148091F803C0BCF1D2
:100DC000480F07D100F1080C4FF0010808FA0CF8A1
:100DD000C2F81080401C0828CED35460BDE8F081D2
:100DE0004161704701617047C16070472DE9F04172
:100DF00005460C4600260723012229460F48FFF727
:100E000045FD002713E001210C48FFF7A0FD00BFBE
:100E100002210A48FFF709FD0028F9D00748FFF72B
:100E200000FD0644052001F091FE781CC7B2A742E0
:100E3000E9DBB6FBF4F080B2BDE8F08100240140AC
:100E4000024601B111B94FF0FF307047486A1E28C1
:100E500002DB6FF00100F8E74B6A581C4862CA5485
:100E600000204B6AC8541046EFE7000008B5012186
:100E7000802000F07FF840F6FF70ADF800000320FE
:100E80008DF8020010208DF8030069460148FFF735
:100E90001CFF08BD001C014070B5002100230F227B
:100EA000C47804B3154C246804F4E064C4F5E06429
:100EB000210AC1F10403CA40447804FA03F184789A
:100EC0001440214309010E4C0678A155047804F022
:100ED0001F050124AC4005786D11AD0005F1E0253A
:100EE000C5F8004109E0047804F01F050124AC4076
:100EF000044D0678761145F8264070BD0CED00E0F3
:100F000000E400E080E100E002490143024A116090
:100F1000704700000000FA050CED00E001460020DB
:100F2000034A506820F44040084350607047000076
:100F30000010024029B1064AD2690243044BDA612B
:100F400004E0034AD2698243014BDA617047000032
:100F50000010024029B1064A12690243044B1A618B
:100F600004E0034A12698243014B1A617047000092
:100F70000010024029B1064A92690243044B9A616B
:100F800004E0034A92698243014B9A617047000072
:100F90000010024029B1064AD2680243044BDA60CD
:100FA00004E0034AD2688243014BDA6070470000D4
:100FB000001002400F48006840F001000D49086031
:100FC000084640680C4908400A49486008460068DD
:100FD0000A490840074908600846006820F4802054
:100FE00008600846406820F4FE0048604FF41F0087
:100FF00088607047001002400000FFF8FFFFF6FE17
:1010000030B500210022002400232D4D6D6805F02D
:101010000C0121B1042905D0082923D105E0294D6F
:10102000056022E0274D05601FE0254D6D6805F441
:101030007012234D6D6805F48034022505EB924251
:101040001CB9214D554305600BE01D4D6D6805F43D
:1010500000351DB11C4D5543056002E0194D554347
:10106000056002E0174D056000BF00BF144D6D68BC
:1010700005F0F0010909154D6B5C0568DD40456020
:101080000F4D6D6805F4E061090A104D6B5C456811
:10109000DD4085600A4D6D6805F46051C90A0B4D4D
:1010A0006B5C4568DD40C560054D6D6805F44041E9
:1010B000890B074D6B5CC568B5FBF3F5056130BD69
:1010C0000010024000127A0000093D0014000020C8
:1010D0002400002010B501460022002300204A1100
:1010E000012A02D1094C236806E0022A02D1074CEA
:1010F000236A01E0054C636A01F01F020124944059
:101100001C400CB1012000E0002010BD0010024086
:101110000248406800F00C007047000000100240D8
:1011200001460020034A506820F0F0000843506058
:1011300070470000001002401149096821F4803115
:101140000F4A11601146096821F480211160B0F541
:10115000803F03D0B0F5802F0ED106E00849096822
:1011600041F48031064A116007E00549096841F4FD
:10117000A021034A116000E000BF00BF70470000DB
:101180000010024010B5FFF715FF4FF48030FFF755
:10119000D3FF00BF3120FFF79DFF0028FAD00020C9
:1011A000FFF7BEFF002000F029F84FF4806000F048
:1011B00019F84FF4E0114FF4803000F031F80120BD
:1011C00000F028F800BF3920FFF784FF0028FAD08C
:1011D000022000F033F800BFFFF79AFF0828FBD188
:1011E00010BD000001460020034A506820F4E06072
:1011F0000843506070470000001002400146002084
:10120000034A506820F4605040EAC10050607047C3
:101210000010024001490866704700000000424289
:1012200002460020044B586820F47C1042EA010377
:101230001843014B586070470010024001460020DF
:10124000034A506820F003000843506070470000D4
:101250000010024010B500F001F810BD0CB50020E0
:10126000019000903348006840F4803031490860B4
:1012700000BF3048006800F4003000900198401C26
:101280000190009818B90198B0F5A06FF1D12948E4
:10129000006800F4003010B10120009001E000204F
:1012A00000900098012843D12348006840F01000C6
:1012B000214908600846006820F0030008600846DD
:1012C000006840F0020008601A4840681949486008
:1012D0000846406848600846406840F480604860BE
:1012E0000846406820F47C1048600846406840F496
:1012F000E81048600846006840F08070086000BF51
:101300000C48006800F000700028F9D009484068D7
:1013100020F00300074948600846406840F002009A
:10132000486000BF0348406800F00C000828F9D16D
:101330000CBD0000001002400020024000200349C4
:101340000870086281F82800486270476C0200202B
:10135000042808D14FF0E021096941F004014FF061
:10136000E022116107E04FF0E021096921F004015A
:101370004FF0E022116170470448006820B1034833
:101380000068401E0149086070470000EC00002022
:1013900010B51348006840F0010011490860084684
:1013A0004068104908400E494860084600680E49E8
:1013B00008400B4908600846006820F48020086057
:1013C0000846406820F4FE0048604FF41F00886023
:1013D000FFF740FF4FF000600449086010BD0000B7
:1013E000001002400000FFF8FFFFF6FE08ED00E0ED
:1013F00002480068401C0149086070475401002001
:1014000010B50120034908600121034800F068F885
:1014100010BD000034010020000400401FB5044648
:1014200001210220FFF786FD174800F069F800202F
:10143000ADF80A00ADF80600A0B2ADF8080041F61C
:101440001F40ADF8040001A90F4800F057F9012131
:101450000D4800F045F801210B4800F044F84FF426
:10146000A060FFF751FD1D208DF8000001208DF8D0
:10147000010002208DF8020001208DF8030068466B
:10148000FFF70AFD1FBD00000004004010B5002258
:101490000121044800F028F90121024800F020F859
:1014A00010BD00000004004010B50121044800F008
:1014B00017F801221146024800F016F910BD00008D
:1014C0000004004010B5044604480068012803D118
:1014D000A04700200149086010BD00003401002031
:1014E000CA430282704721B1028842F001020280A1
:1014F00004E002884FF6FE731A4002807047000035
:1015000010B504466848844208D10121C014FFF791
:1015100041FD0021E014FFF73DFDC4E0B4F1804F30
:1015200008D101210846FFF715FD00210120FFF732
:1015300011FDB8E05D48844208D101210220FFF787
:1015400009FD00210220FFF705FDACE05848844268
:1015500008D101210420FFF7FDFC00210420FFF742
:10156000F9FCA0E05348844208D101210820FFF78C
:10157000F1FC00210820FFF7EDFC94E04E48844286
:1015800008D101211020FFF7E5FC00211020FFF712
:10159000E1FC88E04948844208D101212020FFF77E
:1015A000D9FC00212020FFF7D5FC7CE04448844290
:1015B00008D101214014FFF7EDFC00216014FFF772
:1015C000E9FC70E03F48844209D10121C804FFF7DB
:1015D000E1FC00214FF40020FFF7DCFC63E03A4817
:1015E000844209D101210805FFF7D4FC00214FF402
:1015F0008010FFF7CFFC56E03448844209D1012126
:101600004805FFF7C7FC00214FF40010FFF7C2FCAC
:1016100049E02F48844208D101214020FFF79AFC7D
:1016200000214020FFF796FC3DE02A48844208D183
:1016300001218020FFF78EFC00218020FFF78AFC2B
:1016400031E02548844208D101218015FFF782FC52
:101650000021A015FFF77EFC25E02048844209D137
:1016600001210804FFF796FC00214FF48030FFF7BA
:1016700091FC18E01A48844209D101214804FFF77F
:1016800089FC00214FF40030FFF784FC0BE0154883
:10169000844208D101218804FFF77CFC00214FF42B
:1016A0008020FFF777FC10BD002C014000040040B3
:1016B00000080040000C00400010004000140040F2
:1016C00000340140004C01400050014000540140F2
:1016D00000180040001C0040002000400040014075
:1016E00000440140004801401AB183890B438381C3
:1016F00002E083898B4383817047000000220288C7
:101700001D4B98420ED01D4B98420BD0B0F1804F2C
:1017100008D01B4B984205D01A4B984202D01A4B66
:10172000984204D14FF68F731A404B881A43174BD7
:10173000984207D0164B984204D04FF6FF431A4008
:10174000CB881A4302808B8883850B8803850A4BDC
:1017500098420BD0094B984208D00E4B984205D0C6
:101760000D4B984202D00D4B984201D10B7A038663
:101770000123838270470000002C014000340140A7
:101780000004004000080040000C00400010004031
:101790000014004000400140004401400048014066
:1017A00010B50AA000F0C4FAFFF7E4F905200C49CF
:1017B00008600846006828B90AA000F0B9FA0CA031
:1017C00000F0B6FA10A000F0B3FA10BD496E6974CB
:1017D000205472616E736C617465723A200A000065
:1017E000200200205B5741524E494E475D200000C9
:1017F000636D64207461626C65206E6F20666F7526
:101800006E642E200A0000005B4F4B5D200A000032
:1018100010B54021074800F0CDF9064800F07EFAE7
:101820000549087000BF8021024800F0D8F900285F
:10183000F9D010BD003801402801002000B587B064
:1018400001210420FFF796FB01218803FFF792FB9B
:101850004FF40070ADF8180018208DF81B0003201D
:101860008DF81A0006A92048FFF72FFA4FF4806080
:10187000ADF8180004208DF81B0006A91A48FFF7E0
:1018800024FA25208DF8140000208DF81500012081
:101890008DF8170000208DF8160005A8FFF7FCFA58
:1018A0004FF4165001900020ADF80800ADF80A0082
:1018B000ADF80C00ADF810000C20ADF80E0001A939
:1018C0000A4800F0BFF90121084800F07CF94021E6
:1018D000064800F06FF9012240F22551034800F05C
:1018E0008BF907B000BD000000080140003801403E
:1018F00010B509A000F01CFA01F074F90C49086059
:101900000846006830B9084601680AA000F010FADD
:1019100000BFFEE710BD0000496E69746C697A650E
:1019200020696E70757420627566666572200A00A3
:1019300030010020496E69746C697A652045525205
:101940004F523A20696E707574202620636F6D6D5A
:10195000756E6963617465206275666665722025BF
:1019600070200A0070B50546002423E01648007870
:10197000C0B11648016814480078FFF761FA041EE8
:1019800006DA13A000F0D4F910480068FFF7C2F897
:10199000232C03D000200C49087003E00B4800689A
:1019A00001F04CFB232C05D10020074908700748A3
:1019B0000068A847232CD9D104480068FFF7AAF88B
:1019C00000200149087070BD28010020300100206E
:1019D0004552524F523A627566666572206F76655F
:1019E0007220666C6F77000070B50446204601F0E7
:1019F000FDF80546294628A001F031FB002805DB4B
:101A000027480068401C264908603EE0204601F057
:101A1000EDF80546294623A001F021FB002805DB4F
:101A20001F484068401C1E4948602EE0204601F0D7
:101A3000DDF8054629461DA001F011FB002813DB47
:101A40001DA000F075F91820FFF70EF840B11EA098
:101A500000F06EF912480068401C1149086014E05B
:101A60001CA000F065F910E0204601F0BFF8054623
:101A700029461BA001F0F3FA002803DB01201A49D4
:101A8000086002E019A000F053F9054842680168B7
:101A90001DA000F04DF970BD67726F757020410098
:101AA0003801002067726F75702042004120636F1B
:101AB000756E746572000000BDF8B9A5BCC6CAB1E8
:101AC0002E2E2E200A00000073636F726521200AFB
:101AD000000000006E6F2073636F7265200A0000C3
:101AE000657869740000000048010020706C656131
:101AF000736520696E7075742072696768742067F9
:101B0000726F7570200A000043757272656E7420E2
:101B1000706F696E743A202564203A202564200A8B
:101B20000000000070B5044611A000F001F915E0B6
:101B30000121164800F0E8FD1549086008460068D4
:101B4000012807D1084602681248016812A000F077
:101B5000EFF804E00E4800680E490860E8E700BFAF
:101B600013492046FFF792F80546FEF7E5FF70BDE2
:101B7000707265737320627574746F6E2031207497
:101B80006F2065786563757465200A005402002033
:101B9000E4000020E00000207570206D656D3A20A3
:101BA00025642C206E6F773A202564200A000000FF
:101BB000CC00002001F40072B2F5007F00D100BF1C
:101BC000CA430280704721B1828942F40052828167
:101BD00004E082894DF6FF731A4082817047024605
:101BE0000020B1F5007F00D100BF13880B400BB17E
:101BF000012000E000207047F0B5034600240026D5
:101C00000025002040F66A17B94200D100BF1846EF
:101C1000C1F3421401F01F06012707FA06F5012C53
:101C200001D10C3004E0022C01D1103000E014305E
:101C30001AB107682F43076002E00768AF430760E7
:101C4000F0BD00002DE9F04786B005460E460024A1
:101C5000A24600BFA1460027B08900B100BF2F46B1
:101C60002C8A4CF6FF700440F08804432C82AC8927
:101C70004EF6F3100440B088318908437189084357
:101C80000443AC81AC8A4FF6FF400440B089044362
:101C9000AC8201A8FFF7B4F91F48874202D1DDF8F2
:101CA00010A001E0DDF80CA0A88900F4004040B1CC
:101CB0000AEBCA0000EB0A1031684900B0FBF1F8EA
:101CC00007E00AEBCA0000EB0A1031688900B0FB9C
:101CD000F1F86420B8FBF0F004012009642101FB55
:101CE0001089A88900F4004040B1322000EBC900FF
:101CF000B0FBF1F000F00700044308E0322000EBF5
:101D000009106421B0FBF1F000F00F0004432C81B6
:101D100006B0BDE8F0870000003801400146888821
:101D2000C0F308007047C1F30802828070470000CA
:101D30000FB4054B10B503A9044A029800F0DAF875
:101D400010BC5DF814FB0000C12B00082402002029
:101D500002E008C8121F08C1002AFAD17047704774
:101D6000002001E001C1121F002AFBD170470000D2
:101D70002DE9FF5F82B00021DDE90430020DDDF8BE
:101D800040B0034318D044F61050A2F2FF32424351
:101D90001514119801281FD0A5EB0B00401C5FEA19
:101DA000000A4FF000064E4FDFF83891B04650461B
:101DB00015D5CAF1000413E0119801244AA30128A3
:101DC00001D16FEA0B010298119AC0E90031C0E914
:101DD000024206B0BDE8F09FCBF10000DFE7044609
:101DE0000021404A491842EB0450CDE9001012E0AE
:101DF000E00707D032463B4640464946FEF7C6F963
:101E00008046894632463B4610461946FEF7BEF9E3
:101E100006460F466410002CEAD1DDE90401DDE935
:101E20000023BAF1000F06DAFEF7B0F942464B463E
:101E3000FEF7ACF905E0FEF7D1FB42464B46FEF754
:101E4000CDFB04460E460022284BFEF74FFC03D87C
:101E50004FF0FF30014607E00022254B2046314677
:101E6000FEF715FBFEF729FC102409E0002C0ADB25
:101E70000A220023FEF746FA039B30321A55641EED
:101E800050EA0102F2D1641C039AC4F11103144414
:101E9000119A012A03D0012208430DD10AE0084318
:101EA00004D000204FF0110B119072E7A3EB0B054B
:101EB0006D1E0DE05B4504DD4FF0000205F10105EC
:101EC00004E003DA4FF00002A5F10105002AECD08E
:101ED00002981199C0E90231C0E9004579E7000094
:101EE000000014400000F03F300000000000F0430C
:101EF0000000E03F2DE9FF4F95B09B46894606461E
:101F000000250FE2252877D100242746F84A012131
:101F1000059400E0044316F8013F203B01FA03F06A
:101F20001042F7D130782A2811D06FF02F03307883
:101F3000A0F13002092A16D8059A44F0020402EBF7
:101F4000820203EB42021044761C0590EFE759F839
:101F5000042B0592002A03DA504244F40054059001
:101F600044F00204761C30782E2816D116F8010FA2
:101F700044F004042A280DD06FF02F023078A0F12D
:101F80003003092B09D807EB870302EB4303C7187B
:101F9000761CF3E759F8047B761C30786C280FD058
:101FA00006DC4C2817D068280DD06A2814D104E02C
:101FB000742810D07A280FD10DE044F400140AE000
:101FC00044F4801401E044F440147278824202D157
:101FD00004F58014761C761C307866280BD013DC50
:101FE000582877D009DC002875D04528F6D0462837
:101FF000F4D047281AD19DE118E0632835D0642831
:1020000079D0652812D195E1702873D008DC672853
:10201000F1D069286FD06E280DD06F2806D1B5E0B9
:1020200073282CD0752875D0782874D05A46179903
:1020300090476D1C75E1C4F30250022809D00328B3
:102040000DD0D9F8001004280DD00D6009F1040955
:1020500067E1D9F80010EA17C1E90052F6E7D9F8AC
:1020600000100D80F2E70D70F0E719F8041B8DF8F1
:10207000001000208DF80100EA46012003E059F825
:1020800004AB4FF0FF3061074FF0000102D40DE0C8
:1020900008F101018846B9420FDA8045F8DB1AF8E9
:1020A00008100029F4D108E008F1010188468142B6
:1020B000FADB1AF808100029F6D105985B46A0EB68
:1020C000080721463846179A00F094FA284400EB96
:1020D000080507E04DE029E10DE01AF8010B5A462A
:1020E00017999047B8F10108F7D25B462146384668
:1020F000179A13E142E00A220092C4F302524FF011
:10210000000A022A08D059F804CB032A4FEAEC71DE
:102110000AD00DE029E02AE009F1070121F00702C9
:10212000F2E802C1914609E00FFA8CFC4FEAEC712B
:10213000042A03D14FFA8CFC4FEAEC71002907DA2C
:102140000A460021DCF1000C61EB02012D2202E0C5
:10215000220504D52B228DF80420012203E0E2079A
:1021600001D02022F7E7904659E00A2102E0102230
:102170000DE010214FF0000A00910BE010224FF00B
:10218000000A44F004040827009203E008224FF0FC
:10219000000A0092C4F30252022A05D059F804CB77
:1021A0000021032A08D009E009F1070121F0070204
:1021B000F2E802C1914605E01FFA8CFC042A01D125
:1021C0000CF0FF0C4FF00008220728D5702806D02D
:1021D000009B83F0100353EA0A0305D00EE040226F
:1021E0008DF80420012208E05CEA010206D03022CA
:1021F0008DF804208DF8050002229046009B83F0A4
:10220000080353EA0A030AD15CEA010201D162071A
:1022100005D530228DF804204FF001087F1E582884
:1022200004D034A003900EA802900DE036A0F9E788
:1022300053466046009AFEF765F884460398825C30
:102240000298401E029002705CEA0100F0D10298F0
:1022500006A9081A00F1200A600702D524F4803488
:1022600000E00127574502DDA7EB0A0000E000204F
:1022700000EB0A01009005984144401A0590E003E4
:1022800006D45B462146179A059800F0B3F9054439
:10229000002706E001A85A46C05D179990476D1CBB
:1022A0007F1C4745F6DBE0030CD55B462146179AB9
:1022B000059800F09FF9054404E030205A4617992C
:1022C00090476D1C0099481E00900029F5DC08E03D
:1022D000029802995A460078491C02911799904732
:1022E0006D1CBAF10001AAF1010AF1DC65E1000000
:1022F00009280100303132333435363738396162DC
:10230000636465660000000030313233343536379F
:1023100038394142434445460000000000F058F976
:102320000544761C307800287FF4ECAD19B02846BF
:10233000BDE8F08F620700D4062709F1070222F0FA
:10234000070CFCE80223E14603F000485FEA080CB2
:1023500002D00FF2702C0DE05FEA045C02D50FF2A0
:10236000682C07E05FEAC47C02D00FF2602C01E029
:10237000AFF2700C4FF0FF3823F00043CDF850C09F
:1023800065280CD006DC452809D046281DD04728F2
:102390003DD13DE0662818D067287ED138E0002185
:1023A000112F01DB112000E0781CCDE9000106A906
:1023B0000EA8FFF7DDFCDDE90F010E9A0391002165
:1023C000009207F1010A04914DE04FF000400097A0
:1023D000CDE9011006A90EA8FFF7CAFCDDE90F023E
:1023E00003920E9B11990022DDF80CA00093049239
:1023F00011B9791C00EB010AB7EB0A0004D4C0F153
:10240000FF3007F1010A0490AAEB0700019044E0B5
:10241000012F00DA01270021112F01DD112000E03A
:102420003846CDE9000106A90EA8FFF7A1FCDDE9B9
:102430000F010E9A0391002104910092BA462107E0
:102440000CD40399514500DA8A46BAF1010F05DD33
:10245000009AAAF10101515C302908D0B84202DA91
:1024600010F1040F06DA0121CDE9011015E0AAF1FF
:102470000101E9E7002805DC049901440491AAEB75
:10248000000102E0411C514500DD8A460499401AD2
:10249000401C01904FF000400290200704D40198A6
:1024A000504501DBCDF8048000208DF84F000298E4
:1024B0000DF14F07B0F1004F25D02B200E90029860
:1024C0004FF0020800280CDA404202902D200E90B6
:1024D00007E00A210298FDF7FFFE3031029007F86D
:1024E000011DB8F10001A8F10108F2DC02980028F2
:1024F000EFD1791E0E980870307800F0200040F07F
:10250000450007F8020D12A8C01B00F10708149837
:10251000007800B1012000EB0A01019801EBE071A5
:1025200005984144401A401E0590E00306D45B46DE
:102530002146179A059800F05DF805441498007834
:1025400018B15A46179990476D1CE00324D55B4695
:102550002146179A059800F04DF805441CE00498B0
:10256000002807DBDDE90301884203DD0098405CB9
:10257000179901E0179930205A469047049805F1C1
:102580000105401C04900198401E019004D12E20AA
:102590005A46179990476D1CBAF10001AAF1010A39
:1025A000DDDC05E017F8010B5A46179990476D1CC2
:1025B000B8F10001A8F10108F4DC5B462146179A46
:1025C0000598ABE62D0000002B0000002000000065
:1025D0002DE9F041044600251E461746880404D420
:1025E00005E039462020B0476D1C641EF9D5284609
:1025F000BDE8F0812DE9F041044600251E469046D5
:10260000C80301D5302700E02027880404D505E061
:1026100041463846B0476D1C641EF9D52846BDE8D2
:10262000F08100000CB502460B46002111E00C4879
:1026300010F8210090420BD1094800EB810040784E
:10264000984205D1064800EB8100006801900CBD5E
:10265000491C0929EBD30248006A0090F7E7000003
:1026600004010020F8B504460D460026012D0AD1CC
:10267000D4E9011000F092F8074620783946FFF7B8
:10268000D1FF00900BE0022D09D1D4E9011000F038
:10269000A1F8074620783946FFF7C4FF00909DF85F
:1026A000030007281ED2DFE800F004090D111D1DEC
:1026B00017000020A060606001261CE00020A060E0
:1026C000606018E0A068401CA06014E000982060E2
:1026D0006068401E60600EE003260A48C069206002
:1026E0003046F8BD207808B9012603E0207801289B
:1026F00000D1002600BF00BF9DF8020020703046C8
:10270000EFE7000004010020F8B504460D4600265E
:10271000012D0AD1D4E9011000F040F807462078D5
:102720003946FFF77FFF00900BE0022D09D1D4E975
:10273000011000F04FF8074620783946FFF772FF86
:1027400000909DF8030007281ED2DFE800F004097E
:102750000D111D1D17000020A0606060012614E00F
:102760000020A060606010E0A068401CA0600CE049
:10277000009820606068401E606006E003260648FE
:10278000C06920603046F8BD00BF00BF9DF8020060
:1027900020703046F7E700000401002010B5024623
:1027A00008240B4803681E2A02DB0420044610BDDF
:1027B00011F11E0F02DC05200446F8E703F00400C7
:1027C000042802D000200446F1E701200446EEE789
:1027D0000818014010B5024608240B4803681E2A59
:1027E00002DB0420044610BD11F11E0F02DC05209F
:1027F0000446F8E703F00800082802D00020044649
:10280000F1E701200446EEE70818014010B5044640
:1028100003A0FFF78DFA08A0FFF78AFA10BD0000A9
:10282000697420697320612061646320636D642092
:1028300074657374200A0000B5E7D1B9A3BA2E2ECF
:102840002E2056200A0000002DE9F05F23A0FFF79C
:102850006FFA0024A04639E0641C142094FBF0F1C8
:1028600000FB114038B92448006808B9012000E095
:10287000002021490860322094FBF0F100FB114058
:1028800008BB14210120FEF7B1FA804641461BA087
:10289000FFF74EFA4046FDF7EBFC8346FDF7EDFCF3
:1028A00006464FF066321A4BFDF770FC8146FDF785
:1028B000F7FC05462846FDF7E0FC064632460B4687
:1028C00014A0FFF735FA0A2000F040F9C82CC3DB4A
:1028D00016A0FFF72DFABDE8F09F00007465737431
:1028E00020636D645F616E645F7472616E73666FA6
:1028F000726D200A00000000A4012442BCECB2E288
:102900004144D6B5CEAAA3BA2564200A000000002F
:1029100066664A3FBCECB2E2B5E7D1B9D6B5CEAAFD
:102920003A20252E3266560D0A000000414443200D
:1029300073746F70200A000010B50446012000F087
:1029400039F810BD10B5044603A0FFF7F1F9214690
:1029500006A0FFF7EDF910BD67657420636D645F35
:1029600073656E645F7063200A0000002573200A9F
:102970000000000010B586B0044606A0FFF7D8F9A5
:102980001422084901A8FDF7EFFB01A8FEF73AF869
:1029900006B010BD636F756E7465722072656164F8
:1029A00079200A00D830000810B5044600F054FA27
:1029B00010BD00002DE9F04104460026002500F07E
:1029C00011F90746FEF7A6F8FEF750FA30A0FFF718
:1029D000AFF939A0FFF7ACF921463DA0FFF7A8F900
:1029E000012C52D14FE03F480068012806D1002059
:1029F0003C4908603CA0FFF79BF945E001213F48B6
:102A0000FFF730FE0546AE4204D0012D02D13C480E
:102A1000FEF7A8FF2E463B4800680A2190FBF1F024
:102A200087B20321384600F0B7F8032000F08EF893
:102A3000344800680A2190FBF1F201FB120087B2D2
:102A40000221384600F0A8F8032000F07FF82D4856
:102A500040680A2190FBF1F087B20121384600F06E
:102A60009BF8032000F072F8264840680A2190FB8A
:102A7000F1F201FB120087B20021384600F08CF819
:102A8000032000F063F8AEE700BFBDE8F08100006E
:102A900057656C636F6D65207573696E6720726131
:102AA000636520636F756E7465722070726F6772F4
:102AB000616D200A000000007261636520636F751C
:102AC0006E74657220737461727421200A000000B4
:102AD00073656C656374206D6F6465202564200ADE
:102AE00000000000480100205468696E6B73206686
:102AF0006F7220757365200A00000000DC02002060
:102B0000E91900083801002010B56FF00400FEF745
:102B10001FFC0A4800680A49B0FBF1F00949087037
:102B20000846007800EB4001C1EBC0104FF6FF7182
:102B300001EAC0000449088010BD00000000002028
:102B400000127A00E8000020EA0000200146114A45
:102B500012884A434FF0E0235A6100229A611A46D4
:102B6000126942F001021A6100BF4FF0E0221069C1
:102B700000F001021AB100F48032002AF5D04FF0C3
:102B8000E022126922F001024FF0E0231A610022D4
:102B90009A617047EA00002070B504460D46064869
:102BA00030F814204FF48070A840104481B20348DC
:102BB000FEF71AF970BD0000F0000020001C014073
:102BC00070B504460D46A1B20548FFF7ACF800BF4A
:102BD00040210348FFF703F80028F9D0204670BDD4
:102BE00000380140004870476C020020704730B543
:102BF00005460C4600BF284600F014F8034620287E
:102C0000F9D000BF202B00D003B906E004F8013B47
:102C1000284600F007F8031EF4D100BF0020207002
:102C2000184630BD014641B1D1E90802904204DAAC
:102C30000A6A501C0862885C70470020FCE70000AC
:102C400008B501214FF48670FEF794F94020ADF8E5
:102C5000000003208DF8020010208DF80300694663
:102C60001048FEF732F84FF48070ADF800000320F2
:102C70008DF8020010208DF8030069460A48FEF71F
:102C800024F84FF44070ADF8000003208DF80200E6
:102C900010208DF8030069460448FEF716F800F08E
:102CA00007F808BD0020014000080140000C014069
:102CB00010B540210648FEF795F84FF4807105489D
:102CC000FEF790F84FF440710348FEF78BF810BD03
:102CD0000020014000080140000C014008B5FEF74B
:102CE00051FAFEF7ABFDFEF729FBFEF759FDFEF7A3
:102CF000FFFDFDF7DDFEFFF7A3FFFFF705FFFDF783
:102D000037FEFEF7B3F800BF01210802FEF732F9E3
:102D10008020ADF8000010208DF8030003208DF80E
:102D2000020069460848FDF7D0FF80210648FEF7FB
:102D300057F800BFFFF756FF04A0FEF7F9FF02E0C7
:102D40000448FEF70FFEFBE7002001407374617238
:102D500074200A00251B000830B585B004462046C3
:102D6000FFF744FF0546294621A000F078F9002826
:102D700016DB2148C069204989691F4A52691E4BE8
:102D80001B69CDE90132CDE903101B48C0680090F2
:102D9000194883684268016818A0FEF7C9FF24E05B
:102DA000294622A000F05BF9002811DB0020214910
:102DB000086000BF04E000210F4A42F82010401CC8
:102DC0000828F8DBFEF770FB01201B4908600CE0C7
:102DD00029461AA000F043F9002803DB0220164917
:102DE000086002E017A0FEF7A3FF05B030BD0000A9
:102DF000646973706C6179003803002074696D65D3
:102E000072207265636F6465722025642C202564CE
:102E10002C2025642C2025642C2025642C2025645E
:102E20002C2025642C202564200A00007374617214
:102E30007400000054010020580100206578697476
:102E400000000000756E65787065637465642063CA
:102E50006D64200A0000000070B5002442F20F707B
:102E6000FEF7DCFAFEF702F8FFF7BCFE0546FDF7B9
:102E700051FEB2E001215D48FFF7F4FB5C490860B8
:102E80005C480068012824D15B48FEF71BFB5948C9
:102E9000006801281DD159480068554909688842D1
:102EA00017D053480068012813D1082C0ADA544877
:102EB0000068544941F824005148016852A0FEF7C7
:102EC00037FF05E000204B4908600024FEF7DEFADA
:102ED000641C48480068032827D14E48006820B980
:102EE000FEF7E2FA01204B4908604348FEF7EAFA90
:102EF0004348006848490968884204DD04203D4988
:102F00000860FEF7C3FA3D480068394909688842FD
:102F10000BD037480068012807D1042035490860E4
:102F2000FEF7B4FA01203D490860324800680428E1
:102F300003D100203749086050E02E48006830B9BE
:102F40003748FEF7F5FE3748FEF70CFD0024294808
:102F50000068022806D134A0FEF7EAFE00202849C6
:102F600008603BE0264800684FF47A7190FBF1F06E
:102F700085B203212846FFF70FFE0220FFF7E6FD8A
:102F80001F480068642190FBF1F085B202212846B9
:102F9000FFF702FE0220FFF7D9FD194800680A2159
:102FA00090FBF1F085B201212846FFF7F5FD0220E4
:102FB000FFF7CCFD124800680A2190FBF1F201FBFB
:102FC000120085B200212846FFF7E6FD0220FFF738
:102FD000BDFD07480068094908604BE700BFFEF7E0
:102FE00055FA00200349086070BD0000F40200207B
:102FF0006C01002058010020F11300086801002036
:10300000540100203803002041543A202564200A4E
:1030100000000000600100205C010020640100202D
:1030200040310008592D00087468696E6B73206682
:103030006F7220757365200A000000000146D1E917
:103040000830984202D14FF0FF307047486A0A5C5E
:103050000023486A401E48620B541046F5E710B53D
:10306000024605E0107818B9087808B9002010BDAC
:1030700012F8013B11F8014BA342F3D04FF0FF309F
:10308000F5E7024603E012F8010B01F8010B107896
:103090000028F8D1084670470000000045290008C4
:1030A0000001000000000000010200000D280008DF
:1030B0000103000049280008020400003929000823
:1030C00003050000A929000803060000752900086F
:1030D00004070000000000000C0000000E000000CB
:1030E00010000000120000001400000041444300E2
:1030F0002D736563000000002D7063002D636D6407
:103100000000000073656E6400000000526163659A
:10311000000000002D72660074696D657200000089
:103120002D636F756E746572000000002D747261FE
:103130006E7300002D7465737400000000000000C1
:1031400054696D6572206D65756E3A200A20286994
:103150006E70757420646973706C617920746F206F
:1031600073686F77207265636F726473200A2069D9
:103170006E7075742065786974206261636B207469
:103180006F20636D64206C696E6529200A20696E6A
:1031900070757420737461727420746F207374611D
:1031A00072742074696D6572200A000000000000CE
:1031B00000000000D43100080000002028020000B8
:1031C000A2070008A43200082802002030050000F1
:1031D000601D00081184A24A046809010203040664
:1031E0000708090C69108502040608130431790CDC
:1031F00013EC307308011A0C1872021A180C7203BF
:103200001AAC0C69611AF830811A1418693C9A34A6
:103210003C9A2C3C1AFC30693C1AF00C72051A20BE
:103220002472061A3C0C6A079C6909011B12C01221
:10323000F912A412B012991292128212F812803A64
:10324000903B19F11B04036D1602050101031C03D9
:103250000202FD1201680A030401010104040804CA
:103260006F01491A04B8811AECDC72011A0C187249
:10327000021A180C72031AB00C199F511AF83081F7
:103280001A1418693C9A343C9A2C3C1AFC30693C5C
:103290001AF00C72051A202469D91A3C0C6A079C92
:0432A0006909B10007
:0400000508000131BD
:00000001FF
